:020000040800F2
:1000000088080020990100085F2900080D270008D2
:100010005D29000851070008753000080000000045
:10002000000000000000000000000000852B000818
:10003000530700080000000061290008872B000812
:10004000B3010008B3010008B3010008A52A0008A5
:10005000B3010008B3010008B3010008B3010008B0
:10006000B3010008B3010008B3010008B3010008A0
:10007000B3010008B3010008B3010008B301000890
:10008000B3010008B301000871060008B3010008BD
:10009000B3010008B3010008B301000855070008C8
:1000A000B3010008B3010008B3010008B301000860
:1000B000ED2B0008B301000800000000B3010008A8
:1000C000B30100080000000000000000B3010008B8
:1000D00000000000B30100086930000800000000C3
:1000E000B3010008B3010008B301000800F002F8F2
:1000F00000F042F80AA090E8000C82448344AAF180
:100100000107DA4501D100F037F8AFF2090EBAE87D
:100110000F0013F0010F18BFFB1A43F0010318473B
:100120000438000024380000103A24BF78C878C191
:10013000FAD8520724BF30C830C144BF04680C60ED
:10014000704700000023002400250026103A28BF35
:1001500078C1FBD8520728BF30C148BF0B60704739
:10016000642900F09D80732900F0438200207047CD
:100170001FB51FBD10B510BD00F03FFA1146FFF7C7
:10018000F7FF03F06DF800F05DFA03B4FFF7F2FF3C
:1001900003BC00F065FA00000948804709480047A1
:1001A000FEE7FEE7FEE7FEE7FEE7FEE7FEE7FEE727
:1001B000FEE7FEE704480549054A064B7047000084
:1001C000E92B0008ED0000088802002088080020C4
:1001D00088040020880400200FB41CB5074B06AA31
:1001E0007B4469460090059800F0D9F900206946E3
:1001F00000F0E8F91CBC5DF814FB0000E10300000E
:1002000070B5044685690068C10601D5302600E056
:100210002026C00707D070BDD4E9012130469047A1
:10022000206A401C20626D1EF6D570BD70B5044674
:1002300085690078C00707D170BDD4E9012120206D
:100240009047206A401C20626D1EF6D570BD70B5C7
:100250000C460546012A05D02878800600D5EA69B3
:10026000002302E0012305E05B1C934202D2E05C24
:100270000028F9D1A869E618C01AA861286A1844AC
:1002800028622846FFF7BCFF04E0D5E9012114F8F5
:10029000010B9047B442F8D32846FFF7C7FF70BD63
:1002A0002DE9F0410646002410687529314616A54F
:1002B00010D0AFF30080002802DA404213A507E017
:1002C00031688A0701D512A502E0490704D511A5B6
:1002D000012401E0AFF3008000210A2206F1240787
:1002E00009E0B0FBF2FCB0FBF2F302FB1C00303083
:1002F00078541846491C0028F3D123462A46304634
:10030000BDE8F04100F0EDB8000000002D00000055
:100310002B000000200000002DE9F05F8946044614
:100320004FF0000ADFF824B1FB44C0F820A02046BB
:10033000E168884700287DD0252806D0D4E901212E
:100340009047206A401C2062F1E700255F46204666
:10035000E16888472028064607DB312E05D2B81908
:1003600010F8200C08B10543F1E7A80701D525F0E6
:100370000405C4F81CA00027C4F818A02A2E09D030
:10038000304602F088FE38B304EB8708303EC8F8E8
:10039000186019E059F8041B204604EB87029161AC
:1003A000E1688847012F064618D1E069002820DA65
:1003B00025F020051DE0D8F8180000EB800006EBC2
:1003C00040003038C8F818002046E16888470646E3
:1003D00002F061FE0028EED1012F0AD02E2E08D1A6
:1003E0002046E16888477F1C0646022F45F020051D
:1003F000C4DBA069002803DA404245F00105A06192
:10040000E80701D025F01005A6B1A6F14100192892
:1004100002D8203645F400654A463146204625601C
:100420004D46FFF79DFE60B1012807D0ED1D25F078
:10043000070000E007E000F1080978E705F104098A
:1004400075E730467AE7206ABDE8F09FE6350000A0
:1004500010B5431C02E010F8011B71B18107FAD1FD
:100460004FF0013202C88C1A8C4314EAC211F9D041
:10047000C01A0A0603D0C01E10BDC01A10BD0A045F
:1004800001D0801E10BD0902FCD0401E10BD4FF0EF
:10049000000200B5134694469646203922BFA0E8D4
:1004A0000C50A0E80C50B1F12001BFF4F7AF0907E0
:1004B00028BFA0E80C5048BF0CC05DF804EB8900D1
:1004C00028BF40F8042B08BF704748BF20F8022B14
:1004D00011F0804F18BF00F8012B7047704770472C
:1004E00070472DE9F0470D4699469246044600F1C3
:1004F00024080168880604D5E06921F01001216014
:1005000000E00120A84201DD471B00E00027A169AF
:100510007A1902EB0900081AA0612078C00602D4FB
:100520002046FFF76DFE002608E0D4E901211AF805
:1005300006009047206A401C761C20624E45F4DB82
:100540002078C0060AD52046FFF75AFE06E0D4E917
:10055000012130209047206A401C2062381EA7F1FC
:100560000107F4DC07E0D4E9012118F80500904701
:10057000206A401C2062281EA5F10105F3DC2046FC
:10058000FFF754FE2078000602D50220BDE8F08770
:100590000120FBE701694A1C02610878704700B539
:1005A0008FB0CDE901310021059105497944CDE9AC
:1005B000031011466846FFF7AFFE0FB000BD000004
:1005C000E5FFFFFF0A6802F8010B0A60704710B5EB
:1005D000436913B1AFF3008001E0FFF738FE01205B
:1005E00010BD127800F124010A7000224A70012225
:1005F000EDE711684FF0FF32E9E7754600F02CF89F
:10060000AE4605006946534620F00700854618B0FF
:1006100020B5FFF7CFFDBDE820404FF000064FF0BA
:1006200000074FF000084FF0000B21F00701AC4627
:10063000ACE8C009ACE8C009ACE8C009ACE8C00946
:100640008D46704710B50446AFF300802046BDE8E4
:100650001040FFF79ABD00000048704728020020B4
:1006600001491820ABBEFEE72600020070470000DB
:10067000014800F028B900005400002070B504467D
:1006800000688168C943C90717D1816821F0010159
:10069000816000F053FC05460AE000BF00F04EFC0C
:1006A000401B022804D920688068C043C00706D0D8
:1006B00020688068C043C007F0D0002070BDA06AE9
:1006C00040F01000A062E06A40F00100E06201200A
:1006D00070BD0000F8B500260446009600688168E9
:1006E000C943C9072DD0816841F0010181601648D6
:1006F00016490068B0FBF1F000E0401E00900028B1
:10070000FBD100F01BFC054616E000BF00F016FC14
:10071000401B022810D920688068C043C0070BD056
:10072000A06A40F01000A062E06A40F00100E062C0
:1007300084F824600120F8BD20688068C043C007A9
:10074000E4D10020F8BD00005000002040420F001E
:10075000FEE77047202000F0FFBA7047F8B500248C
:10076000009490F824202546012A12D0012280F816
:1007700024204A681F23072A0DD20668776B521E71
:1007800002EB820293409F430B6893401F437763C1
:1007900019E00220F8BD06680D2A0AD2376BD21F75
:1007A00002EB820293409F430B6893401F433763E1
:1007B00009E0F76A0D3A02EB820293409F430B680F
:1007C00093401F43F7620A68072306680A2A0AD380
:1007D000F7680A3A02EB420293409F438B689340CA
:1007E0001F43F76008E0376902EB420293409F43E2
:1007F0008B6893401F4337610A68102A01D0112A81
:1008000020D1124B02689A4217D193681B0219D467
:10081000936843F4000393600968102912D10C49CE
:100820000C4A0968B1FBF2F101EB8101490000E0DB
:10083000491E00910029FBD104E0816A41F02001AA
:100840008162012480F824502046F8BD0024014034
:100850005000002040420F0038B5124CA0880128FB
:100860001ED1114800F02CF880B2E08002F0F0FEBA
:100870000E49009100230E4A0E4902F08FFD02F04E
:10088000C7FE80B2208102F0E3FE0B4900910023F5
:100890000A4A4FF07E5102F081FD02F0B9FE6081FC
:1008A00038BD000000000020540000200000C842B5
:1008B00000C073450000244200007A440000CA4290
:1008C0000068C06C704710B504460068416889062E
:1008D00026D50168890723D5A16AC90603D4A16A70
:1008E00041F40071A1628168C1F34241072910D12E
:1008F000217B71B9416821F020014160A06A20F498
:100900008070A062A06AC00403D4A06A40F0010015
:10091000A0622046FFF7A0FF21686FF01200086078
:100920002068416809062ED5016849072BD5A16AC0
:10093000C90603D4A16A41F40051A1628168C1F3E0
:100940000231072909D04168490515D48168C1F3EE
:100950004241072910D1217B71B9416821F0800102
:100960004160A06A20F48050A062A06AC00503D450
:10097000A06A40F00100A0622046FFF7EEFE216869
:100980006FF00C0008602068416849060DD50068CA
:10099000C0070AD0A06A40F48030A062204600F070
:1009A00093F821686FF00100086010BD2DE9F04157
:1009B0004FF0000704003D467ED0A06A002628B90B
:1009C000E66284F82460204600F080F82046FFF7B5
:1009D00055FEA16AC90600D420B1A06A40F01000FB
:1009E000A06269E0A16A21F4885141F00201A1628C
:1009F0006268E169237B0A4347EA43010A43A1682D
:100A00004FF48077B94209D0012907D05FF0000187
:100A100094F814C0BCF1010F02D00AE03946F7E7A0
:100A2000F3B1A36A43F02003A362E36A43F0010336
:100A3000E3622368D3F804C02CF4694C4CEA010C3F
:100A4000C3F804C021688B68DFF870C003EA0C03A8
:100A500013438B60A168B9420BD0012909D00CE087
:100A6000DFF85CC0A3690CEB43330B4343F4006134
:100A7000DFE7218A0D05A5F580152168CB6A23F4EF
:100A800070032B43CB62216889680E4B1940914259
:100A900008D1E662A16A21F0020141F00101A162E0
:100AA000BDE8F081A06A20F0020040F01000A062D2
:100AB000E06A40F00100E0620120F1E7FDF7E1FFAC
:100AC00000E0FFFFFE0E1FFF7047000000B585B07D
:100AD000002100910191029103910068124988421E
:100AE00020D11248816941F400718161816901F46A
:100AF00000710491816941F0040181618069694656
:100B000000F00400049002200090032001900848A7
:100B100000F02EF900221146122000F07BFA12207C
:100B200000F06AFA05B000BD002401400010024048
:100B30000008014070B5044690F8240001280DD04B
:100B4000012084F824002046FFF7C4FD02004FF086
:100B5000000005D084F82400104670BD022070BD4E
:100B6000A16A40F60163994341F48071A162224D6C
:100B700023682249AB4218D10E6816F4702F14D0A6
:100B8000A66A46F48016A6620E68760505D5A66AA2
:100B900026F4005646F48056A662A66AF6040AD5E4
:100BA000E66A26F00606E66206E0A66A26F48016E5
:100BB000A6625E68E9E7E06284F824006FF0020054
:100BC00018602068436843F020034360206883680E
:100BD000C3F34243072B05D1A84208D1096811F499
:100BE000702F04D0816841F480118160B4E781687E
:100BF00041F4A001F9E7000000280140042401406D
:100C000010B590F821100022022905D0042181633B
:100C100080F82020012010BD01680B6823F00E032E
:100C20000B6001680B6823F001030B6090F8403003
:100C3000C46B012101FA03F3636080F8211080F88E
:100C40002020104610BD000010B590F8211000249F
:100C5000022903D00421816301243DE001680A6870
:100C600022F00E020A6001680A6822F001020A609E
:100C70001A4A0168914201D1012121E0174A143238
:100C8000914201D110211BE0144A2832914201D136
:100C9000891515E0114A3C32914201D189140FE0C7
:100CA0000E4A5032914202D14FF4803108E00B4A93
:100CB0006432914202D14FF4801101E04FF0807113
:100CC000064A083A5160012180F82110002180F87D
:100CD0002010416B01B18847204610BD080002403A
:100CE00070B5044600F02AF90546601C02D004489D
:100CF0000078044400F022F9401BA042FAD370BDF2
:100D000044000020114910B58A881148C2B1012A57
:100D10001AD100228A80102100F00AF90D4C00221D
:100D20000121204600F004F900220221204600F0B3
:100D3000FFF8002204212046BDE8104000F0F8B87A
:100D400001228A801021F7E710BD0000000000207A
:100D500000080140000C0140044910B50A68024235
:100D600002D00860FFF7CEFF10BD00001404014060
:100D70002DE9F84FDFF89C91002409F1040A0AF1EB
:100D8000040B23460F270BF1040EBBE00125A54001
:100D90002A40AA4276D1DFF880C14E68A6EB0C0843
:100DA00066452BD00DDC032E34D005DC36B3012E86
:100DB00019D0022E2FD11BE0112E16D0122E2AD1BF
:100DC00019E0B8F5881F19D006DCB8F5803F15D0BA
:100DD000B8F5801F1FD111E0B8F5001F0ED0B8F58F
:100DE000041F18D10AE0CB6815E0CB681B1D12E088
:100DF000CB6808330FE0CB680C330CE08B682BB169
:100E0000012B4FF0080303D0456104E0042302E006
:100E1000056100E00023FF2A01D8064601E000F149
:100E200004064FEA840501D9A5F12005D6F8008013
:100E300007FA05FC28EA0C0803FA05F548EA050854
:100E4000C6F800804D68ED005BD5344DAE6946F0C4
:100E50000106AE61AD6924F0030605F001050095B9
:100E60002F4D06EB050CDCF80850A607360F07FAE5
:100E700006F825EA0805DFF8AC80404503D14FF0BD
:100E8000000810E03DE0DFF8A080404502D14FF0BF
:100E9000010808E0DFF89480404502D14FF00208D5
:100EA00001E04FF0030808FA06F848EA0508CCF814
:100EB00008804D68D9F80060ED034D4601D5164312
:100EC00000E096432E604D68DAF80060AD035546A9
:100ED00001D5164300E096432E604D68DBF80060B4
:100EE000ED025D4601D5164300E096432E604D6845
:100EF000DEF80060AD02754601D5164300E096436A
:100F00002E60641C0A6832FA04F57FF43FAFBDE836
:100F1000F88F000000040140000011100010024092
:100F20000000014000080140000C01400010014099
:100F30000AB1016170470904FBE7000001488068BD
:100F40007047000044000020024881680278114484
:100F50008160704744000020074810B5016841F0E7
:100F600010010160032000F075F8002000F006F881
:100F700000F024F8002010BD0020024070B50D4D97
:100F800004464FF47A712878B1FBF0F00A490968F9
:100F9000B1FBF0F000F0C5FD48B9102C07D20022DB
:100FA0002146501E00F036F800206C6070BD012014
:100FB00070BD000044000020500000200C4808B51F
:100FC000816941F001018161816901F001010091B4
:100FD000C16941F08051C161C06900F0805000904A
:100FE0000448416821F0E06141F00071416008BDB2
:100FF0000010024000000140002809DB00F01F0241
:10100000012191404009800000F1E020C0F800116A
:1010100070470000F0B40E4B1B680C46C3F302236C
:10102000C3F10705042D00D90425191D072901D294
:10103000002300E0DB1E012606FA05F1491E2140CF
:1010400099409E40761E16403143F0BC02F013B822
:101050000CED00E0064900F0070208684FF6FF03B8
:10106000184040EA0220034A10430860704700001D
:101070000CED00E00000FA0501490120086270470C
:1010800000000E4210B529A401461DCC86B08DE8A3
:101090001D002AA02A4C006804900020012923D0BA
:1010A00002293AD010291DD161682268D20119D5D0
:1010B000C1F38342C9031DF8020009D5616804AA7F
:1010C000C1F34041515C1F4AB2FBF1F1484301E0DA
:1010D0001D4948436168490204D440005FF00301A0
:1010E000B0FBF1F006B010BD226AC2F30121012964
:1010F00003D1920701D5C803F4E7022905D1626A3A
:10110000920702D549F64040ECE70329EAD121686D
:101110008903E7D54FF22440E4E700F033F9616832
:10112000C1F38131491C4900DAE7000002030405DC
:10113000060708090A0B0C0D0E0F10100102000023
:101140000010024000127A0000093D002DE9F8432A
:1011500005460078354CC00754D0E0690026C00031
:1011600008D4E06940F08050E061E069012600F0B9
:10117000805000902E480168C90512D4016880464D
:1011800041F480710160FFF7D9FE074605E000BF1A
:10119000FFF7D4FEC01B642823D8D8F80000C00590
:1011A000F6D5206A10F4407021D0A98801F440716E
:1011B00081421CD0206A1F49012220F440700A603D
:1011C00000220A602062C00711D0FFF7B7FE074671
:1011D00041F2883808E000BFFFF7B0FEC11B41456F
:1011E00002D90320BDE8F883206A8007F4D5206A7D
:1011F000696820F44070084320621EB1E06920F065
:101200008050E0612878800705D56068A96820F4DF
:101210004040084360602878C00605D56068E968EA
:1012200020F48000084360600020DBE700100240EB
:1012300000700040400442422DE9F0470F4605008F
:1012400061D0434E306800F00700B84209D23068E0
:1012500020F0070038433060306800F00700B842E3
:1012600051D128683B4C810712D5400703D56068EF
:1012700040F4E06060602878000703D5606840F4BF
:10128000605060606068A96820F0F000084360600A
:101290002878C00728D06868012810D02168022863
:1012A00010D0890700292EDA616821F0030101437B
:1012B0006160FFF743FE804641F288390DE0216806
:1012C0008903EFE78901EDE7FFF738FEA0EB08019E
:1012D000494502D90320BDE8F0876068696800F0DD
:1012E0000C00B0EB810FEFD1306800F00700B8427E
:1012F0000BD9306820F0070038433060306800F0C8
:101300000700B84201D00120E5E72878400705D55D
:101310006068E96820F4E0600843606028780007AE
:1013200006D56068296920F4605040EAC100606019
:1013300000F038F86168084AC1F30311515CC840F5
:101340000649086006480068FFF718FE0020C2E75B
:101350000020024000100240FA380008500000202F
:10136000480000200448054900684968044AC1F360
:101370000221515CC840704750000020001002401C
:101380000A3900080448054900684968044AC1F35D
:10139000C221515CC840704750000020001002403C
:1013A0000A39000812A185B00FC98DE80F0014A0FA
:1013B000144A006804905168134801F00C03042B90
:1013C00010D0082B0ED1C1F38343C9031DF80300CD
:1013D0000AD5516804AAC1F34041515C0A4A5043FE
:1013E000B0FBF1F005B0704708494843FAE7000048
:1013F00002030405060708090A0B0C0D0E0F101056
:10140000010200000010024000127A0000093D00B5
:101410002DE9F84F040070D02078C04DC00749D0A6
:101420006868C0F38100012807D06868C0F38100B4
:10143000022809D16868C00306D52868800339D519
:1014400060680028E7D035E06068B0F5803F0BD0D9
:1014500010B1B0F5A02F11D0286820F4803028609A
:10146000286820F4802002E0286840F4803028605A
:10147000606890B1FFF762FD06460AE0286840F414
:1014800080202860F0E700BFFFF758FD801B64282C
:1014900073D828688003F7D50CE0FFF74FFD0646A8
:1014A00005E000BFFFF74AFD801B6428F0D82868DC
:1014B0008003F7D420789A4E80074FF001094FF04F
:1014C000000839D5686810F00C0F07D06868C0F3C1
:1014D0008100022809D16868C00306D42868800703
:1014E00014D52069012808D110E02069B0B1C6F8F0
:1014F0000090FFF723FD074605E00AE1FFF71EFD18
:10150000C01B0228C4D828688007F7D528686169FD
:1015100020F0F80040EAC10028600DE0C6F8008025
:10152000FFF70CFD074604E0FFF708FDC01B02288B
:1015300023D828688007F7D4207800072CD579486D
:10154000A169D9B1C0F80090FFF7F8FC074604E0A4
:10155000FFF7F4FCC01B02280FD8686A8007F7D594
:1015600071484FF4FA510068B0FBF1F0009000BFF1
:101570000098411E0091FAD20EE080E0C0F8008091
:10158000FFF7DCFC074604E0FFF7D8FCC01B02288D
:1015900075D8686A8007F7D42078400760D5E86975
:1015A0000027C00008D4E86940F08050E861E8698D
:1015B000012700F0805000905C480168C90513D4F1
:1015C0000168834641F480710160FFF7B7FC8246F1
:1015D00006E000BFFFF7B2FCA0EB0A0064284ED87B
:1015E000DBF80000C005F5D5E06801280AD008B195
:1015F000052813D0286A20F001002862286A20F00C
:10160000040002E0286A40F001002862E06841F22C
:10161000883B98B1FFF792FC82460BE0286A40F0C5
:1016200004002862EEE700BFFFF788FCA0EB0A0188
:1016300059455AD8286A8007F6D50CE0FFF77EFC9A
:10164000824605E0FFF77AFCA0EB0A0159454CD829
:10165000286A8007F6D41FB1E86920F08050E8615D
:10166000E06988B36968C1F38101022944D0022886
:10167000C6F8608004D0FFF761FC044638E034E02F
:10168000FFF75CFC074604E0FFF758FCC01B02288C
:101690002BD828688001F7D4206AB0F5803F05D1A7
:1016A0006868A16820F4003008436860D4E9080144
:1016B0000843696821F4741108436860C6F86090B3
:1016C000FFF73CFC044606E025E000BFFFF736FCD0
:1016D000001B022809D828688001F7D51BE000BF4D
:1016E000FFF72CFC001B022802D90320BDE8F88F6D
:1016F00028688001F4D40EE00128F7D06868226AD7
:1017000000F48031914204D1616A00F47010884283
:1017100001D00120EAE70020E8E7000000100240C5
:10172000000042428004424250000020007000400D
:101730001CB5002201A900F03FF808489DF80610EA
:1017400001709DF8053043709DF80420827000916F
:1017500003A10848FEF740FD1CBD0000000000206A
:10176000253032643A20253032643A202530326404
:10177000000000001E020020704710B504460068FB
:101780000168C90717D04168C90714D040684007ED
:10179000204607D5FFF7F0FF21686FF0040048608E
:1017A000042002E0FFF7C4FF012060742068416854
:1017B00021F00101416010BD2DE9F04791460C4632
:1017C0005FEA00084AD084B3D8F8000040684007B8
:1017D00044D4404601F073F94FF461620546B0FB12
:1017E000F2F1B0FBF2F302FB13503C23B0FBF3F039
:1017F000B5FBF2F6607002FB1650B0FBF3F203FB90
:101800001200A070182931D31820B1FBF0F7B1FBFA
:10181000F0F200FB12102070404601F049F9411C23
:1018200004D0A84202D9461B02E017E04FF0FF3671
:10183000A7EB071000EB4000C0EB001005EBC01554
:101840002946404601F08AF940B9701C01D071194F
:1018500000E03146404601F06DF910B10120BDE8CD
:10186000F0873946404601F090F800E02170B9F168
:10187000000F0BD0207801F07DF82070607801F027
:1018800079F86070A07801F075F8A0700020E6E7A4
:1018900070B5040003D0607C002610B105E0012083
:1018A00070BD2674204600F043F802206074204684
:1018B00000F01AF9042578BB204601F0BDF858BBAA
:1018C0002068416821F007014160A06820B11748F5
:1018D000016821F0010101601448001F0168A2683D
:1018E00021F46071114301606068411C04D1012042
:1018F000FFF7C8FB80B1401E21688A6822F00F0202
:1019000042EA10428A602168CA6860F30F02CA6026
:10191000204601F0ABF808B16574C0E7E67301201A
:101920006073A0736074002070BD0000306C0040D4
:1019300008B500680D49884217D1FFF79DFB0C4898
:10194000C16941F00061C161C0690A4900F00060ED
:10195000009001200860002211460320FFF75AFB87
:10196000BDE808400320FFF747BB08BD0028004042
:10197000001002403C0442422DE9F0410D460400B3
:101980003BD0C5B3207C01283AD04FF0010884F841
:10199000108002206074E87872B300F0E2FFE07318
:1019A000687800F0DEFF6073A87800F0DAFFA073BB
:1019B000C2B2617BE07B01F092F820732870204670
:1019C00001F07DF84FF46161B0FBF1F100251829B9
:1019D0002DD91822B1FBF2F1A1EB011101EB41016C
:1019E000C1EB011100EBC1163146204601F0B6F8FB
:1019F0000427C8B90BE000E004E00120BDE8F08155
:101A00000220FBE7E07368786073A878CFE7204690
:101A100001F04EF8411C0AD0B04208D206490144F8
:101A2000204601F087F810B167742574E5E784F863
:101A3000118025740020E1E7805101002DE9F0417B
:101A40000D46040024D01DB3207C012823D04FF084
:101A5000010884F81080022060742878EAB100F050
:101A600080FF4FF4616100FB01F6687800F079FFB8
:101A7000C0EB001006EB8006A87800F072FF351866
:101A80002946204601F06AF80026042710BB0FE023
:101A90000120BDE8F0810220FBE74FF4616148437B
:101AA0006978C1EB011100EB8100A9784518E7E7DF
:101AB0002068416821F005014160204600F0F8FFF0
:101AC000411C0AD0A84208D206490144204601F030
:101AD00031F810B167742674DAE784F8118026743F
:101AE0000020D6E78051010070B504000AD02068BC
:101AF000416821F008014160FFF720FA05464FF4E4
:101B00007A7608E0012070BDFFF718FA401BB0425A
:101B100001D9032070BD206840680007F4D500207B
:101B200070BD10B5401EB0F1807F01D3012010BD03
:101B30004FF0E02460610F21601701F09CFA002053
:101B4000A06107202061002010BD7047704710B5CC
:101B500090F83C20012A22D0012280F83C20CA685B
:101B60008C6822F4407222434C6822F48062224343
:101B70000C6822F4006222430C6922F48052224352
:101B80004C6922F400522243C969002322F48042A6
:101B90000A4301684A6480F83C30002010BD0220EE
:101BA00010BD000070B590F83C20012A23D001241C
:101BB00080F83C40022280F83D2003685A689D6806
:101BC00022F070060A6832435A600C4B02689A424F
:101BD00005D0B2F1804F02D0094B9A4204D1496836
:101BE00025F080031943916080F83D40002180F882
:101BF0003C10084670BD022070BD0000002C014062
:101C00000004004010B5040003D094F83D0010B16A
:101C100007E0012010BD002084F83C00204600F0C1
:101C20001FF8022084F83D00211D206800F0E4FF29
:101C3000012084F8460084F83E0084F83F0084F8D0
:101C4000400084F8410084F8420084F8430084F89E
:101C5000440084F8450084F83D00002010BD0000D9
:101C600008B5114A01681148914208D1816941F4CF
:101C700000618161806900F40060009008BDB1F1ED
:101C8000804FFBD1C16941F00101C161C0690022EF
:101C900000F00100009011461C20FFF7BBF9BDE8E1
:101CA00008401C20FFF7A8B9002C0140001002409A
:101CB00090F83D10012901D001207047022180F8E1
:101CC0003D100168CA6842F00102CA6000680A4912
:101CD000884205D0B0F1804F02D00849884204D133
:101CE000816801F00701062903D0016841F0010174
:101CF0000160002070470000002C014000040040FB
:101D000070B5044690F83C00012817D0012584F8EE
:101D10003C50022084F83D002068826822F077025F
:101D200022F47F4282600868502830D00DDC2028E1
:101D30004DD005DC98B310283BD148E0022070BD9F
:101D4000302844D0402834D139E0602828D0702889
:101D500006D0B0F5805F2CD0B0F5005F29D10AE045
:101D6000CB68D1E90121206800F081FF20688168FB
:101D700041F0770109E0CB68D1E90121206800F04A
:101D800076FF2068816841F48041816011E0CA6873
:101D90004968206801F020F85021206807E016E02B
:101DA000CA684968206801F028F86021206800F0BE
:101DB00068FF84F83D50002084F83C0070BDCA687C
:101DC0004968206801F008F840212068EFE72268A0
:101DD00001461046EBE7704770B50446006801699C
:101DE0004FF00005C943890715D4C168C943890765
:101DF00011D4E91E016101202077206880698007E5
:101E0000204602D0FFF7E7FF04E000F0BFF82046CD
:101E100000F04EF9257720680169C943490717D4B6
:101E2000C168C943490713D46FF00401016102205E
:101E300020772068806910F4407F204602D0FFF7A9
:101E4000CAFF04E000F0A2F8204600F031F925773F
:101E500020680169C943090716D4C168C943090745
:101E600012D46FF008010161042020772068C06956
:101E70008007204602D0FFF7AEFF04E000F086F8AE
:101E8000204600F015F9257720680169C943C90685
:101E900017D4C168C943C90613D46FF0100101619A
:101EA000082020772068C06910F4407F204602D0C7
:101EB000FFF791FF04E000F069F8204600F0F8F821
:101EC000257720680169C943C90708D1C168C9439A
:101ED000C90704D1891E0161204600F035F9206848
:101EE0000169C943090609D4C168C943090605D473
:101EF0006FF0800101612046FFF727FE206801692D
:101F0000C943490609D4C168C943490605D46FF0DD
:101F100040010161204600F0E7F920680169C943EA
:101F200089060BD4C168C943890607D46FF0200124
:101F300001612046BDE87040FFF708BE70BD00009B
:101F400000B585B0002100910191029103910068D4
:101F50000B49884212D10B48816941F0040181612B
:101F60008069694600F0040004904FF4006000901E
:101F70000220019003900448FEF7FAFE05B000BD70
:101F8000002C01400010024000080140704770B56D
:101F9000044690F83C000D4601280AD0012084F840
:101FA0003C0042B1042A18D0082A2AD00C2A4DD16C
:101FB00039E0022070BD206800F06CFE2068816965
:101FC00041F0080181612068816921F0040181618B
:101FD000206881692A69114311E0206800F082FEBF
:101FE0002068816941F4006181612068816921F480
:101FF00080618161206881692A6941EA02218161E9
:1020000024E0206800F09AFE2068C16941F00801D0
:10201000C1612068C16921F00401C1612068C16902
:102020002A69114311E0206800F0B4FE2068C169FC
:1020300041F40061C1612068C16921F48061C1611E
:102040002068C1692A6941EA0221C161002084F83F
:102050003C0070BD10B5040003D094F83D0010B1F1
:1020600007E0012010BD002084F83C00204600F06D
:102070001EF8022084F83D00211D206800F0BCFD00
:10208000012084F8460084F83E0084F83F0084F87C
:10209000400084F8410084F8420084F8430084F84A
:1020A000440084F8450084F83D00002010BD7047CE
:1020B0007047000010B50446022249B104290ED031
:1020C000082913D094F84100012816D0012010BD32
:1020D00094F83E000128F9D184F83E200FE094F8EE
:1020E0003F000128F2D184F83F2008E094F8400036
:1020F0000128EBD184F8402001E084F8412001223E
:10210000206800F0A7FD0E492068884203D1426C88
:1021100042F4004242642068884205D0B0F1804F0A
:1021200002D00849884204D1816801F007010629DC
:1021300003D0016841F001010160002010BD0000E2
:10214000002C014000040040F8B5514CA188012941
:102150007ED10068B0F1804F7AD1228962824DA190
:102160004E48FEF739F821890A20B1FBF0F200FB56
:102170001212B1FBF0F1A281B1FBF0F200FB1212DE
:102180002181B1FBF0F1E281218261894FF47A7201
:10219000914201D3628102E009B900216181618A23
:1021A0003F4B0A463F4D491E202906D809261E608E
:1021B0006689A6F2F23676422E60A2F12206212E20
:1021C00005D818606089A0F2F23040422860A2F180
:1021D0004400212806D80C2018606089A0F2F23053
:1021E000404228602D4D0A35202915D80095608978
:1021F0002DA1A0F2F2304342A5F16E00FDF7ECFFF5
:10220000A5F16E00FEF724F982B2A5F16E010A2352
:10221000A1F1880000F020FA628AA2F122002128B0
:1022200015D80095608920A1A0F2F23043421B48E6
:102230006438FDF7D1FF19486438FEF709F91749EA
:1022400082B264390A23A1F1880000F005FA00E0A7
:102250001DE0628AA2F14400212818D80095608907
:1022600011A1A0F2F23043420C486438FDF7B4FFEC
:102270000A486438FEF7ECF801B00849BDE8F040C0
:102280000A2382B26439A1F1880000F0E5B9F8BDF3
:1022900000000020252E33640000000014020020FE
:1022A0000C0C0140402C0140416D6269656E742048
:1022B00042726967686E746E657373206973202556
:1022C00064202009094C616D70204272696768744E
:1022D0006E6573732069732025642074696D653A97
:1022E000202573200D0A00007047704770470000DA
:1022F000F8B5026804461068D168536910F00F0FF2
:102300004FF0000553D003F0010601F490773743F6
:102310005FD0C20705D0CA0503D5226C42F0010286
:102320002264420705D5DA0703D0226C42F002028C
:102330002264820705D5DA0703D0226C42F004023A
:102340002264020707D501F02002324303D0226C39
:1023500042F008022264226C002A34D0800604D5A0
:10236000880602D5204600F07AFD20684069216C7D
:10237000C0F38010090700D430B3204600F057FDA9
:102380002068416949061BD5416921F0400141613E
:10239000A06BA8B158494163A06BFEF755FC00281B
:1023A00011D0A06B416B01B0BDE8F0400847830637
:1023B0000FD58B060DD52046BDE8F84000F04FBD87
:1023C0002046FFF793FFF8BD2046FFF78FFF2564F7
:1023D000F8BD266B2023012E52D1C60650D5CE065D
:1023E0004ED5106850680090506940062AD5A16B00
:1023F000086840680004000CEAD0A68D8642E7D940
:10240000E0858869202818D0D06820F48070D060DA
:102410002068416921F0010141612068416921F092
:102420004001416184F83E3025632068C16821F095
:102430001001C160A06BFEF7E3FBA08DE18D401A97
:1024400081B219E0A08DE18D401A81B2E08D0028A3
:10245000BED00029BCD0D06820F49070D060206835
:10246000426922F00102426184F83E30256320680F
:10247000C26822F01002C2602046FFF736FFF8BDA6
:1024800005062BD50D0629D594F83D002128F6D157
:10249000A068B0F5805F01D12069B0B1206A411C0D
:1024A0002162216800784860E08C401E0004000C26
:1024B000E084E4D12068C16821F08001C160206817
:1024C000C16841F04001C160F8BD206A0088C0F3D6
:1024D00008005060206A801C2062E5E74006F3D5C2
:1024E0004806F1D5D168204621F04001D16084F83A
:1024F0003D3000F00AF9F8BD1F2E000870B5040049
:1025000004D094F83D00002510B106E0012070BD14
:1025100084F83C50204600F023F8242084F83D0045
:102520002068C16821F40051C160204600F0F2FC2F
:102530002068016921F4904101612068416921F01E
:102540002A0141612068C16841F40051C1602564DD
:10255000202084F83D0084F83E00002070BD00007B
:1025600070B586B0002400940194029403942B4E1D
:1025700003682B49022003222A4DB34221D18B69E3
:1025800043F480438B618B6903F4804304938B692C
:1025900043F004038B618969039201F00401049103
:1025A0000102CDE9001069462846FEF7E1FB281537
:1025B000CDE90004694628460294FEF7D9FB06B02F
:1025C00070BD194EB342FAD1CB6943F40033CB61ED
:1025D000CB6903F4003304938B6943F004038B61EC
:1025E0008969039201F0040104910421CDE90010EE
:1025F00069462846FEF7BCFB0820CDE90004694681
:1026000028460294FEF7B4FB002211462620FEF76E
:1026100001FD2620FEF7F0FCD1E700000038014064
:1026200000100240000801400044004090F83E3095
:10263000202B0ED159B152B190F83C30012B08D06B
:10264000012380F83C300023036300F0BFBC01206D
:1026500070470220704770472DE9F843044690F810
:102660003D001F4616460D4620284CD1C5B1BEB1CF
:1026700094F83C00012846D0012084F83C004FF03B
:102680000008C4F84080212084F83D00FEF756FC85
:10269000A6848146E684A068B0F5805F03D004E09C
:1026A0000120BDE8F883206928B12E465FF00005BF
:1026B00084F83C800EE00026FAE78021204600F0F6
:1026C000A0FCA0B9AEB116F8010B21684860E08CFF
:1026D000401EE084E08C4B464FF00002009700283B
:1026E000EBD14FF04001204600F08BFC30B10320CD
:1026F000D7E735F8020BC0F30800E6E7202084F89E
:102700003D000020CDE70220CBE77047FEE7000048
:102710003EB500210D48009101910B4A02910260E3
:1027200001248160047301754FF460220461C26169
:102730004160FEF73BF905200094CDE90140694670
:102740000248FEF70BF83EBD002401405400002073
:102750002DE9F04385B000242648009401940294AA
:102760000394816941F004018161816901F00401F0
:102770000491816941F0080181618069DFF8788006
:1027800000F008004FF48875049000222946404666
:10279000FEF7CEFBDFF864904FF60747002239467C
:1027A0004846FEF7C5FB0095022601250396CDE9B4
:1027B000015469464046FEF7DBFA2020009010489D
:1027C000CDE9010469464046FEF7D2FA0097039628
:1027D000CDE9015469464846FEF7CAFA002211467F
:1027E0001720FEF717FC1720FEF706FC05B0BDE822
:1027F000F08300000010024000080140000C01407E
:10280000000011101CB500241448019412490094D2
:102810000160611E41604FF480718160FFF738F8FC
:102820000A208DF804001E208DF805008DF8064062
:10283000002201A90948FFF701F901208DF80000E5
:102840008DF801008DF802008DF8034000226946E2
:102850000248FFF791F81CBD0028004084000020CA
:1028600010B596B000240F94109411941294139400
:102870001C2108A81494FDF70AFE20216846FDF7E4
:1028800006FE21481F4901600721C0E9011440F2FA
:10289000E731C0E9031444618461FFF7B3F94FF4F1
:1028A00080500F900FA91848FFF72AFA1648FFF733
:1028B000D1FB139413A914481494FFF773F97020F3
:1028C00008904FF4FA70CDE909044FF48070CDE917
:1028D0000C400C2208A90C480E94FFF758FB0094FA
:1028E0004FF40050CDE904400294019403946946EA
:1028F00005480794FFF72BF90348FFF721FB16B0B3
:1029000010BD0000002C01409800002010B586B0DA
:1029100000241148009401940294039404944FF00D
:1029200080410594016040F2CF71C0E90114491063
:10293000C0E903148461FFF765F94FF480500090FB
:1029400069460548FFF7DCF9049404A90248059498
:10295000FFF728F906B010BDE0000020FEE7704741
:102960007047010901EB810100F00F0000EB41000D
:10297000C0B27047002102E00A38C0B2491C0A28E0
:10298000FAD2090740EA116070472DE9F041044688
:102990000025C07B627BA37B42E0012A16D0032A7C
:1029A00014D0052A12D0072A10D0082A0ED00A2ADD
:1029B0000CD00C2A0AD0042A10D0062A0ED0092ADC
:1029C0000CD00B2A0AD0022A0DD028E01F2B0CD3E2
:1029D0000C2A05D101221346401C20E01E2B04D3F3
:1029E0000123521C1BE01C2B02D203F1010316E051
:1029F00011D183B29E0710D16426B3FBF6F706FB14
:102A0000173636B94FF4C876B3FBF6F706FB173323
:102A10001BB91D2303E01D2B01D1032201236D1CD3
:102A20008D42BAD3D1B2E0736173DAB2A27300F00F
:102A300056F82073BDE8F08170B50446FEF77EFAC3
:102A400005464FF47A7606E0FEF778FA401BB0426E
:102A500001D9032070BD206840688006F4D5206845
:102A6000416841F010014160002070BD70B504461E
:102A70000068416821F010014160FEF75FFA0546E9
:102A80004FF47A7607E000BFFEF758FA401BB042D9
:102A900001D9032070BD206840688006F4D500206D
:102AA00070BD00000148FEF768BE000084000020F1
:102AB0000168086A496A89B241EA004070470068C3
:102AC00081698AB2C1698BB2816989B28A4203D0B5
:102AD000C06961F31F40704743EA02407047F0B598
:102AE0006424C1EBC1030927A500072603EB0113EA
:102AF0000329B3FBF7F100F5FA60114401440AD24F
:102B0000401EB0FBF4F201EB9001B0FBF5F0891A26
:102B10000844001D08E0B0FBF4F201EB9001B0FBAB
:102B2000F5F0891A0844801CB0FBF6F106FB110091
:102B3000C0B2F0BD70B50D4606460024FFF77CFF1D
:102B400048B93168280C08623168A8B2486230463A
:102B5000FFF78CFF00B10124204670BD70B50D4613
:102B600006460024FFF768FF48B93168280C8861E1
:102B70003168A8B2C8613046FFF778FF00B1012480
:102B8000204670BD7047FEF7DFB910B594B028211C
:102B90006846FDF77CFC14210AA8FDF778FC0024A8
:102BA0000F940A200090012010941194CDE906049E
:102BB0001021CDE9040112946846FEF729FC0F208C
:102BC000CDE90A040C940D9400210AA80E94FEF796
:102BD00033FB03200F904FF40070CDE910040FA8D1
:102BE000FEF7B4FA14B010BD704700000148FFF7BB
:102BF000F3B80000E000002070B50268134B144CDD
:102C00004FF08046984203D0B04201D0A04203D199
:102C100022F070054A682A43984203D0B04201D09E
:102C2000A04203D122F44074CA6822434C6922F0C6
:102C30008002224302608A68C2620A688262984205
:102C400001D1096901630121416170BD002C01407E
:102C50000004004010B501F01F030121046A9940EF
:102C60008C430462016A9A401143016210BD10B5A1
:102C7000846842EA032224F47F440A4322438260A8
:102C800010BD826822F070020A4342F007018160A1
:102C90007047000030B5026A22F001020262026A47
:102CA0004368846924F073050C682C4322F0020504
:102CB0008A682A430A4DA8420BD122F00805CA6847
:102CC00023F440732A434D6922F004021D438B69AB
:102CD0002B434360846149684163026230BD000058
:102CE000002C014030B5026A22F010020262026A32
:102CF000436884690D6824F4E64444EA05248D6839
:102D000022F0200242EA05120B4DA8420ED1CD68F6
:102D100022F0800242EA05124D6923F4406343EA3F
:102D200085038D6922F0400243EA85034360846194
:102D300049688163026230BD002C014030B5026AEF
:102D400022F480720262036A4268C46923F4007349
:102D500024F073050C682C438D6843EA05230C4D61
:102D6000A8420ED1CD6823F4006343EA05234D69E0
:102D700022F4405242EA05128D6923F4806342EA4C
:102D800005124260C4614968C163036230BD00003E
:102D9000002C014030B5026A22F480520262046ABB
:102DA0004268C3690D6823F4E64343EA05238D684E
:102DB00024F4005444EA0534064DA84204D14D6978
:102DC00022F4804242EA85124260C361496801648C
:102DD000046230BD002C014010B5036A046A24F07F
:102DE00001040462846924F0F00444EA021423F02C
:102DF0000A020A438461026210BD10B5036A23F01F
:102E0000100303628369046A23F4704343EA0232C5
:102E100024F0A00343EA01118261016210BD10B5E4
:102E2000406A0021C185C184FFF760FA10BD0168C6
:102E3000CA6822F49072CA6001684A6922F00102ED
:102E40004A61016B012904D10168CA6822F01002AD
:102E5000CA60202180F83E1000210163704708B548
:102E600090F83E10222901D0022008BD82684FF45C
:102E700080539A4201D1016921B1816A9A421BD0E3
:102E80004AB10AE00268816A5268C2F308020A8005
:102E9000816A891C08E0026972B10268526802F016
:102EA0007F020A70816A491C8162C18D491E090432
:102EB000090CC18503D019E002685268F1E7016886
:102EC000CA6822F02002CA600168CA6822F48072CF
:102ED000CA6001684A6922F001024A61202180F833
:102EE0003E10016B012903D0FFF7B5FB002008BDA0
:102EF000002101630168CA6822F01002CA600168FB
:102F00000A68D20602D50A6849680091818DFFF7E8
:102F1000ECF9EBE770B5044600680169E26821F45A
:102F20004051114301612169A06808436169084368
:102F30002168CA6841F20C639A430243CA60206860
:102F40004169A26921F44071114341611E49206821
:102F5000884202D1FEF716FA01E0FEF703FA00EB11
:102F6000C00101EB0012606864218000B2FBF0F345
:102F7000B3FBF1F36FF018067343B2FBF0F5B2FB4D
:102F8000F0F605EB8305322303EB0515B5FBF1F5F0
:102F9000B6FBF1F605F0F00505EB0615B2FBF0F611
:102FA000B2FBF0F0B0FBF1F06FF01802504306EB0B
:102FB000800003EB0010B0FBF1F0216800F00F007F
:102FC0002844886070BD000000380140816282851D
:102FD000C28500210164222280F83E2080F83C1046
:102FE0000168CA6842F48072CA6001684A6942F0A6
:102FF00001024A610068C16841F02001C1600020FF
:1030000070472DE9F041984617460E460446069D46
:103010001DE0681C1BD02DB1FDF790FFA0EB080050
:10302000A84214D92068C16821F4D071C160206819
:10303000416921F001014161202084F83D0084F8BC
:103040003E00002084F83C000320BDE8F0812068A9
:10305000006836EA000004D00020B842D9D0002031
:10306000F3E70120F9E700000148FFF741B900004C
:103070006C010020FEE70907090E002804DB00F1BF
:10308000E02080F80014704700F00F0000F1E0200D
:1030900080F8141D704730380A2801D2012070478B
:1030A000002070470121002000F060B870B51E209C
:1030B000FDF716FE1C4C00224FF400512046FDF790
:1030C00037FF012211032046FDF732FF0022E114F1
:1030D0002046FDF72DFF002221152046FDF728FF91
:1030E00000224FF400412046FDF722FF0122950304
:1030F00029462046FDF71CFF002229462046FDF701
:1031000017FF2821002000F031F80C21002000F0EA
:103110002DF80621002000F029F8BDE870400121BB
:10312000002000F023B80000000C014010B5144648
:1031300030B1012806D0022806D0032811D105E0BD
:10314000803104E0C03102E0903100E0D031C9B2FA
:10315000002000F00BF804E0C1B2012000F006F8F6
:10316000641C20780028F7D110BD00002DE9F0473D
:1031700006460C460220FDF7B3FD384D4FF40041E2
:103180000EB1012200E000222846FDF7D1FE200604
:103190004FF4806701D5012200E00022394628461D
:1031A000FDF7C6FE60064FF4006801D5012200E07D
:1031B000002241462846FDF7BBFEA0064FF4805989
:1031C00001D5012200E0002249462846FDF7B0FE65
:1031D000E0064FF4005A01D5012200E000225146DA
:1031E0002846FDF7A5FE0122960331462846FDF745
:1031F0009FFE002231462846FDF79AFE200701D5A2
:10320000012200E0002239462846FDF791FE6007C2
:1032100001D5012200E0002241462846FDF788FE44
:10322000A00701D5012200E0002249462846FDF70B
:103230007FFEE00701D0012200E00022514628462F
:10324000FDF776FE012231462846FDF771FE314634
:103250002846BDE8F0470022FDF76ABE000C014099
:1032600008B5FDF779FEFFF790FCFFF771FAFFF75D
:103270004FFAFFF7F5FAFFF749FB424840494FF490
:10328000165500240160C0E901540C26C460C0E951
:1032900004468461C461FFF731F93A483A49443041
:1032A0000160C0E90154C460C0E904468461C4619E
:1032B000FFF724F9FFF7A6FA344D01221102284640
:1032C000FDF736FEFFF7F2FE3148FDF7C1F882B296
:1032D00064232F492B48FFF7BFF92A48D438FDF75C
:1032E00029FC28484838FEF7E3FC26480C21903892
:1032F000FEF7E0FE2348A4380068016841F00101B0
:103300000160A846224D0126224F143D1D4801228E
:1033100069464430FFF78AF99DF80000312805D14D
:10332000AE80012210214046FDF702FE9DF800000C
:10333000302816D1AC80002210214046FDF7F8FD60
:10334000002201213846FDF7F3FD00220221384614
:10335000FDF7EEFD002204213846FDF7E9FDFFF7F9
:10336000A1FEA8880128D1D1064A0021EC32FFF73E
:10337000DDFE044808A1EC30FCF72EFFC6E7000094
:1033800000380140280100200044004000080140AE
:1033900014000020000C0140000000002DE9F04165
:1033A00005461F461046069E00F032FA044639468E
:1033B000304600F02DFA214600F068F82946BDE8B5
:1033C000F04100F059B9000090EA010F48BF81F0C8
:1033D000004100F12482421A3CBF801A89184FEA4A
:1033E000D0524FF07F4C1CEA410FA2EBD15318BFD3
:1033F0009CEA026F00F03B804FF0004C4CEA00204A
:103400004CEA012121FA03FC10EB0C0C1ED202F154
:10341000FF325FEA1C2040EBC25038BF70471CF0FF
:103420007F0F4FEA400C18BFBCF17F4F38BF704789
:10343000C3F12003994008BF20F00100BCF17F4F89
:1034400038BF7047A0F1C04000F0DDB94FEA3C0042
:10345000000A40EBC25028BF1CF0FF0F4FEA400C9F
:10346000E6D018BFBCF17F4F38BF7047EAE79CEA4F
:10347000026F05D010EA5C0F08BF00F000407047F3
:1034800010B500F07AF900BF64FBBE3E4FF47F0C2C
:103490001CEAD0121EBF1CEAD11392EA0C0F93EA69
:1034A0000C0F00F0858090EA010F48BF42F4807253
:1034B00040F4000C41F400002CF07F4120F07F40EC
:1034C00000B58142A2EB03020FF2081CACEB504E98
:1034D000C0F100009EF800E04FEA4E0E00FB0EFC2B
:1034E00038BF49004FEA2C1C02F5FA020CFB0EF320
:1034F0004FEACE1E4FEA112C4FEAC1210EEB635E5C
:1035000042EB22420EFB0CFC4FEA1C5300FB031162
:103510004FEA112C4FEA01310EFB0CFC4FEADC4C58
:1035200000FB0C11C14228BF09184CEB03335DF8B6
:1035300004EB10EB410143EBC250B2F57C0F38BFF6
:10354000704729D512F0F00F1CBF00F1C04000F009
:1035500000407047008182838485868788898B8CB0
:103560008D8E8F919293959697999A9C9D9FA0A2EC
:10357000A3A5A7A8AAACAEB0B2B3B5B7B9BCBEC03C
:10358000C2C5C7C9CCCED1D4D7D9DCDFE2E6E9ECDD
:10359000F0F3F7FAFE0000004FEA400C0CF1807CDB
:1035A000BCF17E4F28BF7047B0F1C04000F02BB98E
:1035B00090EA010F0CEAD11348BF42F480726245D1
:1035C00038BF634507D213F47F0F16D080EA01009D
:1035D00000F00040704710B500F0CFF8097EFC3EC7
:1035E00000F005B880EA010000F00040704780EA72
:1035F000010000F0004000F006B912F47F0F04BF94
:103600000248704780EA010000F0FDB80000C07F6A
:10361000C10DD1F19E0206DB4FEA002343F00043C7
:1036200023FA02F07047004207D54FEA4001B1F19A
:10363000FE4F02D24FF00000704710B500F09DF829
:1036400049922480002070476FEA200070470000F4
:10365000B0FA80F310FA03F2C3F19D030AD0D90542
:1036600001EB1220530638BF704700F1010008BF7C
:1036700020F00100704700004FF47F0C1CEAD012CC
:103680001EBF1CEAD11392EA0C0F93EA0C0F00F054
:10369000478090EA010F48BF42F480724FF0004C1F
:1036A0004CEA00204CEA012102EB0302A0FB0113CB
:1036B000A2F50002002918BF43F001035B0028BFF8
:1036C0004FEA330342EB22425FEA132C4CEBC25029
:1036D0002EBFBCEB436FB2F57C0F70474FEA036C13
:1036E000BCF1004F08BF20F00100B2F57C0F38BFDD
:1036F00070470BD582F0FF0212F5803FC8BF7047BC
:1037000000F1C040D8BF00F00040704700F5000C49
:103710005FEA4C0C48BF7047B0F1C04000F073B88E
:1037200090EA010F0CEAD11348BF42F4807262455F
:1037300038BF634504D280EA010000F000407047C2
:1037400010B500F01AF800BF8900013E00F007B87C
:1037500000F009B85FEA410C5FEA1C6C08D080EA0F
:10376000010000F050B85FEA400C5FEA1C6CF6D133
:103770004FF00040A0F5800070470EF1020E2EF0D1
:10378000030E5EF8044B244204D44FEA4102B2F126
:103790007F4F11D84FEA4003B3F17F4F0CD80ED1C1
:1037A0004FEAD07CB2F17F4F0CEB4C0C0CF1020CC9
:1037B00008BF4CEBD17C04E04FF0080C01E04FEA6D
:1037C000D17C0CEB4C0324FA03F404F00704B4F1AD
:1037D000040C06D20EEB840CBDE810404CF0010C3A
:1037E0006047DFE80CF0070802024FF00040A0F548
:1037F000800010BD0846420018BFD2F1807288BF19
:1038000000F0004010BDFF2141EAD050C0057047D4
:1038100090EA010F48BF81F000413FF5DCAD421A4C
:1038200004D882F00042A0EB020011444FEAD052CB
:103830004FF07F4C1CEA410FA2EBD15318BF9CEA1A
:10384000026F4AD04FF0004C4CEA00204CEA0121B4
:1038500021FA03FCB0EB0C0C0FD412F0FE0F36D0A3
:103860005FEA4C001DD5001240EBC25038BF7047D4
:103870001CF03F0F18BF70470BE0A2F101025FEA96
:103880001C2040EBC25038BF70471CF07F0F18BFA0
:103890007047C3F12003994014BF401E20F001007F
:1038A000704780084FEA122308BF7047B0FA80FCC7
:1038B000A2EB0C02CCF1280C60FA0CF093EA122F68
:1038C00004BF00EBC25070474FEAC3707047130A41
:1038D0005FEADC1008BF7047F6E79CEA026F04D08D
:1038E00010EA5C0F08BF0020704710B5FFF745FFD6
:1038F00040DFF63E81F0004070470000000000000D
:10390000000001020304060708090000000001028C
:103910000304040000080000000000000002000191
:10392000000010004439000800000020540000008E
:1039300028010008983900085400002034080000CD
:10394000440100080000000000000000000000002A
:103950000000000000000000202020202020202067
:1039600020202020202020202020416E696C204132
:103970006E64205A6979612050726573656E747344
:103980002E2E2E0D0A000000010000001000000085
:08399000000000000024F40017
:04000005080000ED02
:00000001FF
